{
  "address": "0xC504c46e3Bde5B0AA6f6081D32625D3cA14bf615",
  "abi": [
    {
      "inputs": [],
      "stateMutability": "nonpayable",
      "type": "constructor"
    },
    {
      "anonymous": false,
      "inputs": [
        {
          "indexed": true,
          "internalType": "address",
          "name": "account",
          "type": "address"
        },
        {
          "indexed": true,
          "internalType": "address",
          "name": "operator",
          "type": "address"
        },
        {
          "indexed": false,
          "internalType": "bool",
          "name": "approved",
          "type": "bool"
        }
      ],
      "name": "ApprovalForAll",
      "type": "event"
    },
    {
      "anonymous": false,
      "inputs": [
        {
          "indexed": true,
          "internalType": "address",
          "name": "previousOwner",
          "type": "address"
        },
        {
          "indexed": true,
          "internalType": "address",
          "name": "newOwner",
          "type": "address"
        }
      ],
      "name": "OwnershipTransferred",
      "type": "event"
    },
    {
      "anonymous": false,
      "inputs": [
        {
          "indexed": true,
          "internalType": "address",
          "name": "operator",
          "type": "address"
        },
        {
          "indexed": true,
          "internalType": "address",
          "name": "from",
          "type": "address"
        },
        {
          "indexed": true,
          "internalType": "address",
          "name": "to",
          "type": "address"
        },
        {
          "indexed": false,
          "internalType": "uint256[]",
          "name": "ids",
          "type": "uint256[]"
        },
        {
          "indexed": false,
          "internalType": "uint256[]",
          "name": "values",
          "type": "uint256[]"
        }
      ],
      "name": "TransferBatch",
      "type": "event"
    },
    {
      "anonymous": false,
      "inputs": [
        {
          "indexed": true,
          "internalType": "address",
          "name": "operator",
          "type": "address"
        },
        {
          "indexed": true,
          "internalType": "address",
          "name": "from",
          "type": "address"
        },
        {
          "indexed": true,
          "internalType": "address",
          "name": "to",
          "type": "address"
        },
        {
          "indexed": false,
          "internalType": "uint256",
          "name": "id",
          "type": "uint256"
        },
        {
          "indexed": false,
          "internalType": "uint256",
          "name": "value",
          "type": "uint256"
        }
      ],
      "name": "TransferSingle",
      "type": "event"
    },
    {
      "anonymous": false,
      "inputs": [
        {
          "indexed": false,
          "internalType": "string",
          "name": "value",
          "type": "string"
        },
        {
          "indexed": true,
          "internalType": "uint256",
          "name": "id",
          "type": "uint256"
        }
      ],
      "name": "URI",
      "type": "event"
    },
    {
      "inputs": [],
      "name": "INITAL_PROPERTY_PRICE",
      "outputs": [
        {
          "internalType": "uint256",
          "name": "",
          "type": "uint256"
        }
      ],
      "stateMutability": "view",
      "type": "function"
    },
    {
      "inputs": [
        {
          "internalType": "uint256",
          "name": "_totalTokens",
          "type": "uint256"
        },
        {
          "internalType": "string",
          "name": "country",
          "type": "string"
        },
        {
          "internalType": "string",
          "name": "image_link",
          "type": "string"
        }
      ],
      "name": "addAPropertyToSell",
      "outputs": [],
      "stateMutability": "nonpayable",
      "type": "function"
    },
    {
      "inputs": [
        {
          "internalType": "address",
          "name": "account",
          "type": "address"
        },
        {
          "internalType": "uint256",
          "name": "id",
          "type": "uint256"
        }
      ],
      "name": "balanceOf",
      "outputs": [
        {
          "internalType": "uint256",
          "name": "",
          "type": "uint256"
        }
      ],
      "stateMutability": "view",
      "type": "function"
    },
    {
      "inputs": [
        {
          "internalType": "address[]",
          "name": "accounts",
          "type": "address[]"
        },
        {
          "internalType": "uint256[]",
          "name": "ids",
          "type": "uint256[]"
        }
      ],
      "name": "balanceOfBatch",
      "outputs": [
        {
          "internalType": "uint256[]",
          "name": "",
          "type": "uint256[]"
        }
      ],
      "stateMutability": "view",
      "type": "function"
    },
    {
      "inputs": [
        {
          "internalType": "uint256",
          "name": "",
          "type": "uint256"
        }
      ],
      "name": "checkTokenSupplyStatus",
      "outputs": [
        {
          "internalType": "bool",
          "name": "",
          "type": "bool"
        }
      ],
      "stateMutability": "view",
      "type": "function"
    },
    {
      "inputs": [
        {
          "internalType": "uint256",
          "name": "_tokenId",
          "type": "uint256"
        }
      ],
      "name": "getCountry",
      "outputs": [
        {
          "internalType": "string",
          "name": "",
          "type": "string"
        }
      ],
      "stateMutability": "view",
      "type": "function"
    },
    {
      "inputs": [
        {
          "internalType": "uint256",
          "name": "_tokenId",
          "type": "uint256"
        }
      ],
      "name": "getPropertyName",
      "outputs": [
        {
          "internalType": "string",
          "name": "",
          "type": "string"
        }
      ],
      "stateMutability": "view",
      "type": "function"
    },
    {
      "inputs": [
        {
          "internalType": "uint256",
          "name": "_tokenId",
          "type": "uint256"
        }
      ],
      "name": "getTokenURI",
      "outputs": [
        {
          "internalType": "string",
          "name": "",
          "type": "string"
        }
      ],
      "stateMutability": "view",
      "type": "function"
    },
    {
      "inputs": [
        {
          "internalType": "uint256",
          "name": "_tokenId",
          "type": "uint256"
        }
      ],
      "name": "getTokensSold",
      "outputs": [
        {
          "internalType": "string",
          "name": "",
          "type": "string"
        }
      ],
      "stateMutability": "view",
      "type": "function"
    },
    {
      "inputs": [
        {
          "internalType": "uint256",
          "name": "_tokenId",
          "type": "uint256"
        }
      ],
      "name": "getTotalTokens",
      "outputs": [
        {
          "internalType": "string",
          "name": "",
          "type": "string"
        }
      ],
      "stateMutability": "view",
      "type": "function"
    },
    {
      "inputs": [
        {
          "internalType": "address",
          "name": "account",
          "type": "address"
        },
        {
          "internalType": "address",
          "name": "operator",
          "type": "address"
        }
      ],
      "name": "isApprovedForAll",
      "outputs": [
        {
          "internalType": "bool",
          "name": "",
          "type": "bool"
        }
      ],
      "stateMutability": "view",
      "type": "function"
    },
    {
      "inputs": [
        {
          "internalType": "uint256",
          "name": "_amount",
          "type": "uint256"
        },
        {
          "internalType": "uint256",
          "name": "_propertyId",
          "type": "uint256"
        }
      ],
      "name": "mint",
      "outputs": [],
      "stateMutability": "nonpayable",
      "type": "function"
    },
    {
      "inputs": [],
      "name": "name",
      "outputs": [
        {
          "internalType": "string",
          "name": "",
          "type": "string"
        }
      ],
      "stateMutability": "view",
      "type": "function"
    },
    {
      "inputs": [],
      "name": "owner",
      "outputs": [
        {
          "internalType": "address",
          "name": "",
          "type": "address"
        }
      ],
      "stateMutability": "view",
      "type": "function"
    },
    {
      "inputs": [],
      "name": "renounceOwnership",
      "outputs": [],
      "stateMutability": "nonpayable",
      "type": "function"
    },
    {
      "inputs": [
        {
          "internalType": "address",
          "name": "from",
          "type": "address"
        },
        {
          "internalType": "address",
          "name": "to",
          "type": "address"
        },
        {
          "internalType": "uint256[]",
          "name": "ids",
          "type": "uint256[]"
        },
        {
          "internalType": "uint256[]",
          "name": "amounts",
          "type": "uint256[]"
        },
        {
          "internalType": "bytes",
          "name": "data",
          "type": "bytes"
        }
      ],
      "name": "safeBatchTransferFrom",
      "outputs": [],
      "stateMutability": "nonpayable",
      "type": "function"
    },
    {
      "inputs": [
        {
          "internalType": "address",
          "name": "from",
          "type": "address"
        },
        {
          "internalType": "address",
          "name": "to",
          "type": "address"
        },
        {
          "internalType": "uint256",
          "name": "id",
          "type": "uint256"
        },
        {
          "internalType": "uint256",
          "name": "amount",
          "type": "uint256"
        },
        {
          "internalType": "bytes",
          "name": "data",
          "type": "bytes"
        }
      ],
      "name": "safeTransferFrom",
      "outputs": [],
      "stateMutability": "nonpayable",
      "type": "function"
    },
    {
      "inputs": [
        {
          "internalType": "address",
          "name": "operator",
          "type": "address"
        },
        {
          "internalType": "bool",
          "name": "approved",
          "type": "bool"
        }
      ],
      "name": "setApprovalForAll",
      "outputs": [],
      "stateMutability": "nonpayable",
      "type": "function"
    },
    {
      "inputs": [
        {
          "internalType": "bytes4",
          "name": "interfaceId",
          "type": "bytes4"
        }
      ],
      "name": "supportsInterface",
      "outputs": [
        {
          "internalType": "bool",
          "name": "",
          "type": "bool"
        }
      ],
      "stateMutability": "view",
      "type": "function"
    },
    {
      "inputs": [],
      "name": "symbol",
      "outputs": [
        {
          "internalType": "string",
          "name": "",
          "type": "string"
        }
      ],
      "stateMutability": "view",
      "type": "function"
    },
    {
      "inputs": [
        {
          "internalType": "uint256",
          "name": "",
          "type": "uint256"
        }
      ],
      "name": "tokenIdToImageLink",
      "outputs": [
        {
          "internalType": "string",
          "name": "",
          "type": "string"
        }
      ],
      "stateMutability": "view",
      "type": "function"
    },
    {
      "inputs": [
        {
          "internalType": "uint256",
          "name": "",
          "type": "uint256"
        }
      ],
      "name": "tokenIdToProperty",
      "outputs": [
        {
          "internalType": "string",
          "name": "name",
          "type": "string"
        },
        {
          "internalType": "uint256",
          "name": "totalTokens",
          "type": "uint256"
        },
        {
          "internalType": "uint256",
          "name": "tokensSold",
          "type": "uint256"
        },
        {
          "internalType": "string",
          "name": "country",
          "type": "string"
        }
      ],
      "stateMutability": "view",
      "type": "function"
    },
    {
      "inputs": [
        {
          "internalType": "uint256",
          "name": "",
          "type": "uint256"
        }
      ],
      "name": "totalTokenSupplyForAGivenProperty",
      "outputs": [
        {
          "internalType": "uint256",
          "name": "",
          "type": "uint256"
        }
      ],
      "stateMutability": "view",
      "type": "function"
    },
    {
      "inputs": [
        {
          "internalType": "address",
          "name": "newOwner",
          "type": "address"
        }
      ],
      "name": "transferOwnership",
      "outputs": [],
      "stateMutability": "nonpayable",
      "type": "function"
    },
    {
      "inputs": [
        {
          "internalType": "uint256",
          "name": "_propertyId",
          "type": "uint256"
        },
        {
          "internalType": "bool",
          "name": "_newStatus",
          "type": "bool"
        }
      ],
      "name": "updatePropertyStatus",
      "outputs": [],
      "stateMutability": "nonpayable",
      "type": "function"
    },
    {
      "inputs": [
        {
          "internalType": "uint256",
          "name": "tokenId",
          "type": "uint256"
        }
      ],
      "name": "uri",
      "outputs": [
        {
          "internalType": "string",
          "name": "",
          "type": "string"
        }
      ],
      "stateMutability": "view",
      "type": "function"
    },
    {
      "inputs": [
        {
          "internalType": "uint256",
          "name": "amount",
          "type": "uint256"
        },
        {
          "internalType": "address",
          "name": "_tokenAddress",
          "type": "address"
        }
      ],
      "name": "withdrawERC20",
      "outputs": [],
      "stateMutability": "nonpayable",
      "type": "function"
    },
    {
      "inputs": [],
      "name": "withdrawEther",
      "outputs": [],
      "stateMutability": "nonpayable",
      "type": "function"
    },
    {
      "inputs": [
        {
          "internalType": "uint256",
          "name": "amount",
          "type": "uint256"
        }
      ],
      "name": "withdrawUSDT",
      "outputs": [],
      "stateMutability": "nonpayable",
      "type": "function"
    }
  ],
  "transactionHash": "0x07917d5805b0d5a065c9beb3d2e4838e837a208cbc94b1a13ee566f667a02f4f",
  "args": [],
  "numDeployments": 4,
  "solcInputHash": "0cd1f4eb8be367ab6e7b59a307ac5bc5",
  "bytecode": "0x608060405260405180602001604052806000815250600390805190602001906200002b92919062000208565b503480156200003957600080fd5b50604051806020016040528060008152506200005b816200011e60201b60201c565b506200007c620000706200013a60201b60201c565b6200014260201b60201c565b6040518060400160405280600681526020017f57616b617275000000000000000000000000000000000000000000000000000081525060079080519060200190620000c992919062000208565b506040518060400160405280600281526020017f574b000000000000000000000000000000000000000000000000000000000000815250600890805190602001906200011792919062000208565b506200031d565b80600290805190602001906200013692919062000208565b5050565b600033905090565b6000600560009054906101000a900473ffffffffffffffffffffffffffffffffffffffff16905081600560006101000a81548173ffffffffffffffffffffffffffffffffffffffff021916908373ffffffffffffffffffffffffffffffffffffffff1602179055508173ffffffffffffffffffffffffffffffffffffffff168173ffffffffffffffffffffffffffffffffffffffff167f8be0079c531659141344cd1fd0a4f28419497f9722a3daafe3b4186f6b6457e060405160405180910390a35050565b8280546200021690620002e7565b90600052602060002090601f0160209004810192826200023a576000855562000286565b82601f106200025557805160ff191683800117855562000286565b8280016001018555821562000286579182015b828111156200028557825182559160200191906001019062000268565b5b50905062000295919062000299565b5090565b5b80821115620002b45760008160009055506001016200029a565b5090565b7f4e487b7100000000000000000000000000000000000000000000000000000000600052602260045260246000fd5b600060028204905060018216806200030057607f821691505b60208210811415620003175762000316620002b8565b5b50919050565b614d45806200032d6000396000f3fe608060405234801561001057600080fd5b50600436106101ce5760003560e01c80638da5cb5b11610104578063c20938e0116100a2578063e985e9c511610071578063e985e9c514610566578063f242432a14610596578063f2fde38b146105b2578063ff2d2e07146105ce576101ce565b8063c20938e0146104cb578063ca98b78d146104e7578063dba197b114610503578063e674a85114610533576101ce565b80639c0c891f116100de5780639c0c891f14610433578063a22cb4651461044f578063ab15d2e61461046b578063afa5e0a91461049b576101ce565b80638da5cb5b146103c75780639029b815146103e557806395d89b4114610415576101ce565b80633ea521ef116101715780635a80e9fc1161014b5780635a80e9fc14610365578063715018a6146103955780637362377b1461039f57806384908631146103a9576101ce565b80633ea521ef146102e95780634e1273f41461030557806357d1780514610335576101ce565b80630e89341c116101ad5780630e89341c146102515780631b2ef1ca146102815780632eb2c2d61461029d5780633bb3a24d146102b9576101ce565b8062fdd58e146101d357806301ffc9a71461020357806306fdde0314610233575b600080fd5b6101ed60048036038101906101e89190612cac565b6105fe565b6040516101fa9190612cfb565b60405180910390f35b61021d60048036038101906102189190612d6e565b6106c7565b60405161022a9190612db6565b60405180910390f35b61023b6107a9565b6040516102489190612e6a565b60405180910390f35b61026b60048036038101906102669190612e8c565b610837565b6040516102789190612e6a565b60405180910390f35b61029b60048036038101906102969190612eb9565b61091c565b005b6102b760048036038101906102b291906130f6565b610b5c565b005b6102d360048036038101906102ce9190612e8c565b610bfd565b6040516102e09190612e6a565b60405180910390f35b61030360048036038101906102fe9190612e8c565b610c8d565b005b61031f600480360381019061031a9190613288565b610d69565b60405161032c91906133be565b60405180910390f35b61034f600480360381019061034a9190612e8c565b610e82565b60405161035c9190612e6a565b60405180910390f35b61037f600480360381019061037a9190612e8c565b610eb0565b60405161038c9190612e6a565b60405180910390f35b61039d610f88565b005b6103a7610f9c565b005b6103b1610ff3565b6040516103be9190612cfb565b60405180910390f35b6103cf610ff8565b6040516103dc91906133ef565b60405180910390f35b6103ff60048036038101906103fa9190612e8c565b611022565b60405161040c9190612db6565b60405180910390f35b61041d611042565b60405161042a9190612e6a565b60405180910390f35b61044d60048036038101906104489190613436565b6110d0565b005b61046960048036038101906104649190613476565b611107565b005b61048560048036038101906104809190612e8c565b61111d565b6040516104929190612e6a565b60405180910390f35b6104b560048036038101906104b09190612e8c565b6111bd565b6040516104c29190612e6a565b60405180910390f35b6104e560048036038101906104e091906134b6565b61126b565b005b61050160048036038101906104fc9190613597565b611334565b005b61051d60048036038101906105189190612e8c565b611454565b60405161052a9190612cfb565b60405180910390f35b61054d60048036038101906105489190612e8c565b61146c565b60405161055d9493929190613622565b60405180910390f35b610580600480360381019061057b9190613675565b6115ac565b60405161058d9190612db6565b60405180910390f35b6105b060048036038101906105ab91906136b5565b611640565b005b6105cc60048036038101906105c7919061374c565b6116e1565b005b6105e860048036038101906105e39190612e8c565b611765565b6040516105f59190612e6a565b60405180910390f35b60008073ffffffffffffffffffffffffffffffffffffffff168373ffffffffffffffffffffffffffffffffffffffff16141561066f576040517f08c379a0000000000000000000000000000000000000000000000000000000008152600401610666906137eb565b60405180910390fd5b60008083815260200190815260200160002060008473ffffffffffffffffffffffffffffffffffffffff1673ffffffffffffffffffffffffffffffffffffffff16815260200190815260200160002054905092915050565b60007fd9b67a26000000000000000000000000000000000000000000000000000000007bffffffffffffffffffffffffffffffffffffffffffffffffffffffff1916827bffffffffffffffffffffffffffffffffffffffffffffffffffffffff1916148061079257507f0e89341c000000000000000000000000000000000000000000000000000000007bffffffffffffffffffffffffffffffffffffffffffffffffffffffff1916827bffffffffffffffffffffffffffffffffffffffffffffffffffffffff1916145b806107a257506107a182611793565b5b9050919050565b600780546107b69061383a565b80601f01602080910402602001604051908101604052809291908181526020018280546107e29061383a565b801561082f5780601f106108045761010080835404028352916020019161082f565b820191906000526020600020905b81548152906001019060200180831161081257829003601f168201915b505050505081565b606060006004600084815260200190815260200160002080546108599061383a565b80601f01602080910402602001604051908101604052809291908181526020018280546108859061383a565b80156108d25780601f106108a7576101008083540402835291602001916108d2565b820191906000526020600020905b8154815290600101906020018083116108b557829003601f168201915b5050505050905060008151116108f0576108eb836117fd565b610914565b60038160405160200161090492919061393c565b6040516020818303038152906040525b915050919050565b600a600082815260200190815260200160002060009054906101000a900460ff1661097c576040517f08c379a0000000000000000000000000000000000000000000000000000000008152600401610973906139f8565b60405180910390fd5b600073cd198e12cd9a2fe20bc81f437b863f61f2d5c2df905060008173ffffffffffffffffffffffffffffffffffffffff1663313ce5676040518163ffffffff1660e01b8152600401602060405180830381865afa1580156109e2573d6000803e3d6000fd5b505050506040513d601f19601f82011682018060405250810190610a069190613a51565b60ff1690508173ffffffffffffffffffffffffffffffffffffffff166323b872dd3330610a5b85600a610a399190613be0565b610a4d60328b61189190919063ffffffff16565b61189190919063ffffffff16565b6040518463ffffffff1660e01b8152600401610a7993929190613c2b565b600060405180830381600087803b158015610a9357600080fd5b505af1158015610aa7573d6000803e3d6000fd5b505050506000600960008581526020019081526020016000209050610ad98582600201546118a790919063ffffffff16565b81600101541015610b1f576040517f08c379a0000000000000000000000000000000000000000000000000000000008152600401610b1690613cd4565b60405180910390fd5b84816002016000828254610b339190613cf4565b92505081905550610b55338587604051806020016040528060008152506118bd565b5050505050565b610b64611a6e565b73ffffffffffffffffffffffffffffffffffffffff168573ffffffffffffffffffffffffffffffffffffffff161480610baa5750610ba985610ba4611a6e565b6115ac565b5b610be9576040517f08c379a0000000000000000000000000000000000000000000000000000000008152600401610be090613dbc565b60405180910390fd5b610bf68585858585611a76565b5050505050565b60606000610c0a83610eb0565b610c1384611765565b610c1c85610e82565b610c25866111bd565b600c6000888152602001908152602001600020604051602001610c4c959493929190614120565b6040516020818303038152906040529050610c6681611d98565b604051602001610c769190614246565b604051602081830303815290604052915050919050565b610c95611efc565b60008111610cd8576040517f08c379a0000000000000000000000000000000000000000000000000000000008152600401610ccf906142da565b60405180910390fd5b600073cd198e12cd9a2fe20bc81f437b863f61f2d5c2df90508073ffffffffffffffffffffffffffffffffffffffff1663a9059cbb610d15610ff8565b846040518363ffffffff1660e01b8152600401610d339291906142fa565b600060405180830381600087803b158015610d4d57600080fd5b505af1158015610d61573d6000803e3d6000fd5b505050505050565b60608151835114610daf576040517f08c379a0000000000000000000000000000000000000000000000000000000008152600401610da690614395565b60405180910390fd5b6000835167ffffffffffffffff811115610dcc57610dcb612efe565b5b604051908082528060200260200182016040528015610dfa5781602001602082028036833780820191505090505b50905060005b8451811015610e7757610e47858281518110610e1f57610e1e6143b5565b5b6020026020010151858381518110610e3a57610e396143b5565b5b60200260200101516105fe565b828281518110610e5a57610e596143b5565b5b60200260200101818152505080610e70906143e4565b9050610e00565b508091505092915050565b6060600060096000848152602001908152602001600020600201549050610ea881611f7a565b915050919050565b60606000600960008481526020019081526020016000206000018054610ed59061383a565b80601f0160208091040260200160405190810160405280929190818152602001828054610f019061383a565b8015610f4e5780601f10610f2357610100808354040283529160200191610f4e565b820191906000526020600020905b815481529060010190602001808311610f3157829003601f168201915b50505050509050610f5e83611f7a565b604051602001610f6e9190614479565b604051602081830303815290604052905080915050919050565b610f90611efc565b610f9a6000612052565b565b610fa4611efc565b60004790503373ffffffffffffffffffffffffffffffffffffffff166108fc829081150290604051600060405180830381858888f19350505050158015610fef573d6000803e3d6000fd5b5050565b603281565b6000600560009054906101000a900473ffffffffffffffffffffffffffffffffffffffff16905090565b600a6020528060005260406000206000915054906101000a900460ff1681565b6008805461104f9061383a565b80601f016020809104026020016040519081016040528092919081815260200182805461107b9061383a565b80156110c85780601f1061109d576101008083540402835291602001916110c8565b820191906000526020600020905b8154815290600101906020018083116110ab57829003601f168201915b505050505081565b6110d8611efc565b80600a600084815260200190815260200160002060006101000a81548160ff0219169083151502179055505050565b611119611112611a6e565b8383612118565b5050565b600c602052806000526040600020600091509050805461113c9061383a565b80601f01602080910402602001604051908101604052809291908181526020018280546111689061383a565b80156111b55780601f1061118a576101008083540402835291602001916111b5565b820191906000526020600020905b81548152906001019060200180831161119857829003601f168201915b505050505081565b606060006009600084815260200190815260200160002060030180546111e29061383a565b80601f016020809104026020016040519081016040528092919081815260200182805461120e9061383a565b801561125b5780601f106112305761010080835404028352916020019161125b565b820191906000526020600020905b81548152906001019060200180831161123e57829003601f168201915b5050505050905080915050919050565b611273611efc565b600082116112b6576040517f08c379a00000000000000000000000000000000000000000000000000000000081526004016112ad906142da565b60405180910390fd5b60008190508073ffffffffffffffffffffffffffffffffffffffff1663a9059cbb6112df610ff8565b856040518363ffffffff1660e01b81526004016112fd9291906142fa565b600060405180830381600087803b15801561131757600080fd5b505af115801561132b573d6000803e3d6000fd5b50505050505050565b61133c611efc565b6113466006612285565b6000611352600661229b565b90506001600a600083815260200190815260200160002060006101000a81548160ff0219169083151502179055506000604051806080016040528061139684610eb0565b815260200186815260200160008152602001858152509050806009600084815260200190815260200160002060008201518160000190805190602001906113de929190612b61565b506020820151816001015560408201518160020155606082015181600301908051906020019061140f929190612b61565b5090505082600c6000848152602001908152602001600020908051906020019061143a929190612b61565b5061144d8261144884610bfd565b6122a9565b5050505050565b600b6020528060005260406000206000915090505481565b600960205280600052604060002060009150905080600001805461148f9061383a565b80601f01602080910402602001604051908101604052809291908181526020018280546114bb9061383a565b80156115085780601f106114dd57610100808354040283529160200191611508565b820191906000526020600020905b8154815290600101906020018083116114eb57829003601f168201915b5050505050908060010154908060020154908060030180546115299061383a565b80601f01602080910402602001604051908101604052809291908181526020018280546115559061383a565b80156115a25780601f10611577576101008083540402835291602001916115a2565b820191906000526020600020905b81548152906001019060200180831161158557829003601f168201915b5050505050905084565b6000600160008473ffffffffffffffffffffffffffffffffffffffff1673ffffffffffffffffffffffffffffffffffffffff16815260200190815260200160002060008373ffffffffffffffffffffffffffffffffffffffff1673ffffffffffffffffffffffffffffffffffffffff16815260200190815260200160002060009054906101000a900460ff16905092915050565b611648611a6e565b73ffffffffffffffffffffffffffffffffffffffff168573ffffffffffffffffffffffffffffffffffffffff16148061168e575061168d85611688611a6e565b6115ac565b5b6116cd576040517f08c379a00000000000000000000000000000000000000000000000000000000081526004016116c490613dbc565b60405180910390fd5b6116da8585858585612315565b5050505050565b6116e9611efc565b600073ffffffffffffffffffffffffffffffffffffffff168173ffffffffffffffffffffffffffffffffffffffff161415611759576040517f08c379a00000000000000000000000000000000000000000000000000000000081526004016117509061450d565b60405180910390fd5b61176281612052565b50565b606060006009600084815260200190815260200160002060010154905061178b81611f7a565b915050919050565b60007f01ffc9a7000000000000000000000000000000000000000000000000000000007bffffffffffffffffffffffffffffffffffffffffffffffffffffffff1916827bffffffffffffffffffffffffffffffffffffffffffffffffffffffff1916149050919050565b60606002805461180c9061383a565b80601f01602080910402602001604051908101604052809291908181526020018280546118389061383a565b80156118855780601f1061185a57610100808354040283529160200191611885565b820191906000526020600020905b81548152906001019060200180831161186857829003601f168201915b50505050509050919050565b6000818361189f919061452d565b905092915050565b600081836118b59190613cf4565b905092915050565b600073ffffffffffffffffffffffffffffffffffffffff168473ffffffffffffffffffffffffffffffffffffffff16141561192d576040517f08c379a0000000000000000000000000000000000000000000000000000000008152600401611924906145f9565b60405180910390fd5b6000611937611a6e565b90506000611944856125b1565b90506000611951856125b1565b90506119628360008985858961262b565b8460008088815260200190815260200160002060008973ffffffffffffffffffffffffffffffffffffffff1673ffffffffffffffffffffffffffffffffffffffff16815260200190815260200160002060008282546119c19190613cf4565b925050819055508673ffffffffffffffffffffffffffffffffffffffff16600073ffffffffffffffffffffffffffffffffffffffff168473ffffffffffffffffffffffffffffffffffffffff167fc3d58168c5ae7397731d063d5bbf3d657854427343f4c083240f7aacaa2d0f628989604051611a3f929190614619565b60405180910390a4611a5683600089858589612633565b611a658360008989898961263b565b50505050505050565b600033905090565b8151835114611aba576040517f08c379a0000000000000000000000000000000000000000000000000000000008152600401611ab1906146b4565b60405180910390fd5b600073ffffffffffffffffffffffffffffffffffffffff168473ffffffffffffffffffffffffffffffffffffffff161415611b2a576040517f08c379a0000000000000000000000000000000000000000000000000000000008152600401611b2190614746565b60405180910390fd5b6000611b34611a6e565b9050611b4481878787878761262b565b60005b8451811015611cf5576000858281518110611b6557611b646143b5565b5b602002602001015190506000858381518110611b8457611b836143b5565b5b60200260200101519050600080600084815260200190815260200160002060008b73ffffffffffffffffffffffffffffffffffffffff1673ffffffffffffffffffffffffffffffffffffffff16815260200190815260200160002054905081811015611c25576040517f08c379a0000000000000000000000000000000000000000000000000000000008152600401611c1c906147d8565b60405180910390fd5b81810360008085815260200190815260200160002060008c73ffffffffffffffffffffffffffffffffffffffff1673ffffffffffffffffffffffffffffffffffffffff168152602001908152602001600020819055508160008085815260200190815260200160002060008b73ffffffffffffffffffffffffffffffffffffffff1673ffffffffffffffffffffffffffffffffffffffff1681526020019081526020016000206000828254611cda9190613cf4565b9250508190555050505080611cee906143e4565b9050611b47565b508473ffffffffffffffffffffffffffffffffffffffff168673ffffffffffffffffffffffffffffffffffffffff168273ffffffffffffffffffffffffffffffffffffffff167f4a39dc06d4c0dbc64b70af90fd698a233a518aa5d07e595d983b8c0526c8f7fb8787604051611d6c9291906147f8565b60405180910390a4611d82818787878787612633565b611d90818787878787612813565b505050505050565b6060600082511415611dbb57604051806020016040528060008152509050611ef7565b6000604051806060016040528060408152602001614cd06040913990506000600360028551611dea9190613cf4565b611df4919061485e565b6004611e00919061452d565b67ffffffffffffffff811115611e1957611e18612efe565b5b6040519080825280601f01601f191660200182016040528015611e4b5781602001600182028036833780820191505090505b509050600182016020820185865187015b80821015611eb7576003820191508151603f8160121c168501518453600184019350603f81600c1c168501518453600184019350603f8160061c168501518453600184019350603f8116850151845360018401935050611e5c565b5050600386510660018114611ed35760028114611ee657611eee565b603d6001830353603d6002830353611eee565b603d60018303535b50505080925050505b919050565b611f04611a6e565b73ffffffffffffffffffffffffffffffffffffffff16611f22610ff8565b73ffffffffffffffffffffffffffffffffffffffff1614611f78576040517f08c379a0000000000000000000000000000000000000000000000000000000008152600401611f6f906148db565b60405180910390fd5b565b606060006001611f89846129eb565b01905060008167ffffffffffffffff811115611fa857611fa7612efe565b5b6040519080825280601f01601f191660200182016040528015611fda5781602001600182028036833780820191505090505b509050600082602001820190505b600115612047578080600190039150507f3031323334353637383961626364656600000000000000000000000000000000600a86061a8153600a85816120315761203061482f565b5b049450600085141561204257612047565b611fe8565b819350505050919050565b6000600560009054906101000a900473ffffffffffffffffffffffffffffffffffffffff16905081600560006101000a81548173ffffffffffffffffffffffffffffffffffffffff021916908373ffffffffffffffffffffffffffffffffffffffff1602179055508173ffffffffffffffffffffffffffffffffffffffff168173ffffffffffffffffffffffffffffffffffffffff167f8be0079c531659141344cd1fd0a4f28419497f9722a3daafe3b4186f6b6457e060405160405180910390a35050565b8173ffffffffffffffffffffffffffffffffffffffff168373ffffffffffffffffffffffffffffffffffffffff161415612187576040517f08c379a000000000000000000000000000000000000000000000000000000000815260040161217e9061496d565b60405180910390fd5b80600160008573ffffffffffffffffffffffffffffffffffffffff1673ffffffffffffffffffffffffffffffffffffffff16815260200190815260200160002060008473ffffffffffffffffffffffffffffffffffffffff1673ffffffffffffffffffffffffffffffffffffffff16815260200190815260200160002060006101000a81548160ff0219169083151502179055508173ffffffffffffffffffffffffffffffffffffffff168373ffffffffffffffffffffffffffffffffffffffff167f17307eab39ab6107e8899845ad3d59bd9653f200f220920489ca2b5937696c31836040516122789190612db6565b60405180910390a3505050565b6001816000016000828254019250508190555050565b600081600001549050919050565b806004600084815260200190815260200160002090805190602001906122d0929190612b61565b50817f6bb7ff708619ba0610cba295a58592e0451dee2622938c8755667688daf3529b6122fc84610837565b6040516123099190612e6a565b60405180910390a25050565b600073ffffffffffffffffffffffffffffffffffffffff168473ffffffffffffffffffffffffffffffffffffffff161415612385576040517f08c379a000000000000000000000000000000000000000000000000000000000815260040161237c90614746565b60405180910390fd5b600061238f611a6e565b9050600061239c856125b1565b905060006123a9856125b1565b90506123b983898985858961262b565b600080600088815260200190815260200160002060008a73ffffffffffffffffffffffffffffffffffffffff1673ffffffffffffffffffffffffffffffffffffffff16815260200190815260200160002054905085811015612450576040517f08c379a0000000000000000000000000000000000000000000000000000000008152600401612447906147d8565b60405180910390fd5b85810360008089815260200190815260200160002060008b73ffffffffffffffffffffffffffffffffffffffff1673ffffffffffffffffffffffffffffffffffffffff168152602001908152602001600020819055508560008089815260200190815260200160002060008a73ffffffffffffffffffffffffffffffffffffffff1673ffffffffffffffffffffffffffffffffffffffff16815260200190815260200160002060008282546125059190613cf4565b925050819055508773ffffffffffffffffffffffffffffffffffffffff168973ffffffffffffffffffffffffffffffffffffffff168573ffffffffffffffffffffffffffffffffffffffff167fc3d58168c5ae7397731d063d5bbf3d657854427343f4c083240f7aacaa2d0f628a8a604051612582929190614619565b60405180910390a4612598848a8a86868a612633565b6125a6848a8a8a8a8a61263b565b505050505050505050565b60606000600167ffffffffffffffff8111156125d0576125cf612efe565b5b6040519080825280602002602001820160405280156125fe5781602001602082028036833780820191505090505b5090508281600081518110612616576126156143b5565b5b60200260200101818152505080915050919050565b505050505050565b505050505050565b61265a8473ffffffffffffffffffffffffffffffffffffffff16612b3e565b1561280b578373ffffffffffffffffffffffffffffffffffffffff1663f23a6e6187878686866040518663ffffffff1660e01b81526004016126a09594939291906149e2565b6020604051808303816000875af19250505080156126dc57506040513d601f19601f820116820180604052508101906126d99190614a51565b60015b612782576126e8614a8b565b806308c379a0141561274557506126fd614aad565b806127085750612747565b806040517f08c379a000000000000000000000000000000000000000000000000000000000815260040161273c9190612e6a565b60405180910390fd5b505b6040517f08c379a000000000000000000000000000000000000000000000000000000000815260040161277990614bb5565b60405180910390fd5b63f23a6e6160e01b7bffffffffffffffffffffffffffffffffffffffffffffffffffffffff1916817bffffffffffffffffffffffffffffffffffffffffffffffffffffffff191614612809576040517f08c379a000000000000000000000000000000000000000000000000000000000815260040161280090614c47565b60405180910390fd5b505b505050505050565b6128328473ffffffffffffffffffffffffffffffffffffffff16612b3e565b156129e3578373ffffffffffffffffffffffffffffffffffffffff1663bc197c8187878686866040518663ffffffff1660e01b8152600401612878959493929190614c67565b6020604051808303816000875af19250505080156128b457506040513d601f19601f820116820180604052508101906128b19190614a51565b60015b61295a576128c0614a8b565b806308c379a0141561291d57506128d5614aad565b806128e0575061291f565b806040517f08c379a00000000000000000000000000000000000000000000000000000000081526004016129149190612e6a565b60405180910390fd5b505b6040517f08c379a000000000000000000000000000000000000000000000000000000000815260040161295190614bb5565b60405180910390fd5b63bc197c8160e01b7bffffffffffffffffffffffffffffffffffffffffffffffffffffffff1916817bffffffffffffffffffffffffffffffffffffffffffffffffffffffff1916146129e1576040517f08c379a00000000000000000000000000000000000000000000000000000000081526004016129d890614c47565b60405180910390fd5b505b505050505050565b600080600090507a184f03e93ff9f4daa797ed6e38ed64bf6a1f0100000000000000008310612a49577a184f03e93ff9f4daa797ed6e38ed64bf6a1f0100000000000000008381612a3f57612a3e61482f565b5b0492506040810190505b6d04ee2d6d415b85acef81000000008310612a86576d04ee2d6d415b85acef81000000008381612a7c57612a7b61482f565b5b0492506020810190505b662386f26fc100008310612ab557662386f26fc100008381612aab57612aaa61482f565b5b0492506010810190505b6305f5e1008310612ade576305f5e1008381612ad457612ad361482f565b5b0492506008810190505b6127108310612b03576127108381612af957612af861482f565b5b0492506004810190505b60648310612b265760648381612b1c57612b1b61482f565b5b0492506002810190505b600a8310612b35576001810190505b80915050919050565b6000808273ffffffffffffffffffffffffffffffffffffffff163b119050919050565b828054612b6d9061383a565b90600052602060002090601f016020900481019282612b8f5760008555612bd6565b82601f10612ba857805160ff1916838001178555612bd6565b82800160010185558215612bd6579182015b82811115612bd5578251825591602001919060010190612bba565b5b509050612be39190612be7565b5090565b5b80821115612c00576000816000905550600101612be8565b5090565b6000604051905090565b600080fd5b600080fd5b600073ffffffffffffffffffffffffffffffffffffffff82169050919050565b6000612c4382612c18565b9050919050565b612c5381612c38565b8114612c5e57600080fd5b50565b600081359050612c7081612c4a565b92915050565b6000819050919050565b612c8981612c76565b8114612c9457600080fd5b50565b600081359050612ca681612c80565b92915050565b60008060408385031215612cc357612cc2612c0e565b5b6000612cd185828601612c61565b9250506020612ce285828601612c97565b9150509250929050565b612cf581612c76565b82525050565b6000602082019050612d106000830184612cec565b92915050565b60007fffffffff0000000000000000000000000000000000000000000000000000000082169050919050565b612d4b81612d16565b8114612d5657600080fd5b50565b600081359050612d6881612d42565b92915050565b600060208284031215612d8457612d83612c0e565b5b6000612d9284828501612d59565b91505092915050565b60008115159050919050565b612db081612d9b565b82525050565b6000602082019050612dcb6000830184612da7565b92915050565b600081519050919050565b600082825260208201905092915050565b60005b83811015612e0b578082015181840152602081019050612df0565b83811115612e1a576000848401525b50505050565b6000601f19601f8301169050919050565b6000612e3c82612dd1565b612e468185612ddc565b9350612e56818560208601612ded565b612e5f81612e20565b840191505092915050565b60006020820190508181036000830152612e848184612e31565b905092915050565b600060208284031215612ea257612ea1612c0e565b5b6000612eb084828501612c97565b91505092915050565b60008060408385031215612ed057612ecf612c0e565b5b6000612ede85828601612c97565b9250506020612eef85828601612c97565b9150509250929050565b600080fd5b7f4e487b7100000000000000000000000000000000000000000000000000000000600052604160045260246000fd5b612f3682612e20565b810181811067ffffffffffffffff82111715612f5557612f54612efe565b5b80604052505050565b6000612f68612c04565b9050612f748282612f2d565b919050565b600067ffffffffffffffff821115612f9457612f93612efe565b5b602082029050602081019050919050565b600080fd5b6000612fbd612fb884612f79565b612f5e565b90508083825260208201905060208402830185811115612fe057612fdf612fa5565b5b835b818110156130095780612ff58882612c97565b845260208401935050602081019050612fe2565b5050509392505050565b600082601f83011261302857613027612ef9565b5b8135613038848260208601612faa565b91505092915050565b600080fd5b600067ffffffffffffffff82111561306157613060612efe565b5b61306a82612e20565b9050602081019050919050565b82818337600083830152505050565b600061309961309484613046565b612f5e565b9050828152602081018484840111156130b5576130b4613041565b5b6130c0848285613077565b509392505050565b600082601f8301126130dd576130dc612ef9565b5b81356130ed848260208601613086565b91505092915050565b600080600080600060a0868803121561311257613111612c0e565b5b600061312088828901612c61565b955050602061313188828901612c61565b945050604086013567ffffffffffffffff81111561315257613151612c13565b5b61315e88828901613013565b935050606086013567ffffffffffffffff81111561317f5761317e612c13565b5b61318b88828901613013565b925050608086013567ffffffffffffffff8111156131ac576131ab612c13565b5b6131b8888289016130c8565b9150509295509295909350565b600067ffffffffffffffff8211156131e0576131df612efe565b5b602082029050602081019050919050565b60006132046131ff846131c5565b612f5e565b9050808382526020820190506020840283018581111561322757613226612fa5565b5b835b81811015613250578061323c8882612c61565b845260208401935050602081019050613229565b5050509392505050565b600082601f83011261326f5761326e612ef9565b5b813561327f8482602086016131f1565b91505092915050565b6000806040838503121561329f5761329e612c0e565b5b600083013567ffffffffffffffff8111156132bd576132bc612c13565b5b6132c98582860161325a565b925050602083013567ffffffffffffffff8111156132ea576132e9612c13565b5b6132f685828601613013565b9150509250929050565b600081519050919050565b600082825260208201905092915050565b6000819050602082019050919050565b61333581612c76565b82525050565b6000613347838361332c565b60208301905092915050565b6000602082019050919050565b600061336b82613300565b613375818561330b565b93506133808361331c565b8060005b838110156133b1578151613398888261333b565b97506133a383613353565b925050600181019050613384565b5085935050505092915050565b600060208201905081810360008301526133d88184613360565b905092915050565b6133e981612c38565b82525050565b600060208201905061340460008301846133e0565b92915050565b61341381612d9b565b811461341e57600080fd5b50565b6000813590506134308161340a565b92915050565b6000806040838503121561344d5761344c612c0e565b5b600061345b85828601612c97565b925050602061346c85828601613421565b9150509250929050565b6000806040838503121561348d5761348c612c0e565b5b600061349b85828601612c61565b92505060206134ac85828601613421565b9150509250929050565b600080604083850312156134cd576134cc612c0e565b5b60006134db85828601612c97565b92505060206134ec85828601612c61565b9150509250929050565b600067ffffffffffffffff82111561351157613510612efe565b5b61351a82612e20565b9050602081019050919050565b600061353a613535846134f6565b612f5e565b90508281526020810184848401111561355657613555613041565b5b613561848285613077565b509392505050565b600082601f83011261357e5761357d612ef9565b5b813561358e848260208601613527565b91505092915050565b6000806000606084860312156135b0576135af612c0e565b5b60006135be86828701612c97565b935050602084013567ffffffffffffffff8111156135df576135de612c13565b5b6135eb86828701613569565b925050604084013567ffffffffffffffff81111561360c5761360b612c13565b5b61361886828701613569565b9150509250925092565b6000608082019050818103600083015261363c8187612e31565b905061364b6020830186612cec565b6136586040830185612cec565b818103606083015261366a8184612e31565b905095945050505050565b6000806040838503121561368c5761368b612c0e565b5b600061369a85828601612c61565b92505060206136ab85828601612c61565b9150509250929050565b600080600080600060a086880312156136d1576136d0612c0e565b5b60006136df88828901612c61565b95505060206136f088828901612c61565b945050604061370188828901612c97565b935050606061371288828901612c97565b925050608086013567ffffffffffffffff81111561373357613732612c13565b5b61373f888289016130c8565b9150509295509295909350565b60006020828403121561376257613761612c0e565b5b600061377084828501612c61565b91505092915050565b7f455243313135353a2061646472657373207a65726f206973206e6f742061207660008201527f616c6964206f776e657200000000000000000000000000000000000000000000602082015250565b60006137d5602a83612ddc565b91506137e082613779565b604082019050919050565b60006020820190508181036000830152613804816137c8565b9050919050565b7f4e487b7100000000000000000000000000000000000000000000000000000000600052602260045260246000fd5b6000600282049050600182168061385257607f821691505b602082108114156138665761386561380b565b5b50919050565b600081905092915050565b60008190508160005260206000209050919050565b600081546138998161383a565b6138a3818661386c565b945060018216600081146138be57600181146138cf57613902565b60ff19831686528186019350613902565b6138d885613877565b60005b838110156138fa578154818901526001820191506020810190506138db565b838801955050505b50505092915050565b600061391682612dd1565b613920818561386c565b9350613930818560208601612ded565b80840191505092915050565b6000613948828561388c565b9150613954828461390b565b91508190509392505050565b7f5468652070726f706572747920796f7520776f756c64206c696b6520746f206260008201527f7579206973206e6f7420617661696c61626c6520696e20746869732074696d6560208201527f2100000000000000000000000000000000000000000000000000000000000000604082015250565b60006139e2604183612ddc565b91506139ed82613960565b606082019050919050565b60006020820190508181036000830152613a11816139d5565b9050919050565b600060ff82169050919050565b613a2e81613a18565b8114613a3957600080fd5b50565b600081519050613a4b81613a25565b92915050565b600060208284031215613a6757613a66612c0e565b5b6000613a7584828501613a3c565b91505092915050565b7f4e487b7100000000000000000000000000000000000000000000000000000000600052601160045260246000fd5b60008160011c9050919050565b6000808291508390505b6001851115613b0457808604811115613ae057613adf613a7e565b5b6001851615613aef5780820291505b8081029050613afd85613aad565b9450613ac4565b94509492505050565b600082613b1d5760019050613bd9565b81613b2b5760009050613bd9565b8160018114613b415760028114613b4b57613b7a565b6001915050613bd9565b60ff841115613b5d57613b5c613a7e565b5b8360020a915084821115613b7457613b73613a7e565b5b50613bd9565b5060208310610133831016604e8410600b8410161715613baf5782820a905083811115613baa57613ba9613a7e565b5b613bd9565b613bbc8484846001613aba565b92509050818404811115613bd357613bd2613a7e565b5b81810290505b9392505050565b6000613beb82612c76565b9150613bf683612c76565b9250613c237fffffffffffffffffffffffffffffffffffffffffffffffffffffffffffffffff8484613b0d565b905092915050565b6000606082019050613c4060008301866133e0565b613c4d60208301856133e0565b613c5a6040830184612cec565b949350505050565b7f546865726520617265206e6f20617661696c61626c6520746f6b656e73206c6560008201527f667420666f722073656c656374656420616d6f756e7421000000000000000000602082015250565b6000613cbe603783612ddc565b9150613cc982613c62565b604082019050919050565b60006020820190508181036000830152613ced81613cb1565b9050919050565b6000613cff82612c76565b9150613d0a83612c76565b9250827fffffffffffffffffffffffffffffffffffffffffffffffffffffffffffffffff03821115613d3f57613d3e613a7e565b5b828201905092915050565b7f455243313135353a2063616c6c6572206973206e6f7420746f6b656e206f776e60008201527f6572206f7220617070726f766564000000000000000000000000000000000000602082015250565b6000613da6602e83612ddc565b9150613db182613d4a565b604082019050919050565b60006020820190508181036000830152613dd581613d99565b9050919050565b7f7b00000000000000000000000000000000000000000000000000000000000000600082015250565b6000613e1260018361386c565b9150613e1d82613ddc565b600182019050919050565b7f226e616d65223a20220000000000000000000000000000000000000000000000600082015250565b6000613e5e60098361386c565b9150613e6982613e28565b600982019050919050565b7f222c000000000000000000000000000000000000000000000000000000000000600082015250565b6000613eaa60028361386c565b9150613eb582613e74565b600282019050919050565b7f226465736372697074696f6e223a20224672616374696f6e616c69736564205260008201527f65616c204573746174652050726f70657274792062792057616b61727520436f60208201527f6d70616e79222c00000000000000000000000000000000000000000000000000604082015250565b6000613f4260478361386c565b9150613f4d82613ec0565b604782019050919050565b7f22746f74616c546f6b656e73223a202200000000000000000000000000000000600082015250565b6000613f8e60108361386c565b9150613f9982613f58565b601082019050919050565b7f22746f6b656e73536f6c64223a20220000000000000000000000000000000000600082015250565b6000613fda600f8361386c565b9150613fe582613fa4565b600f82019050919050565b7f22636f756e747279223a20220000000000000000000000000000000000000000600082015250565b6000614026600c8361386c565b915061403182613ff0565b600c82019050919050565b7f22696d616765223a202200000000000000000000000000000000000000000000600082015250565b6000614072600a8361386c565b915061407d8261403c565b600a82019050919050565b7f2200000000000000000000000000000000000000000000000000000000000000600082015250565b60006140be60018361386c565b91506140c982614088565b600182019050919050565b7f7d00000000000000000000000000000000000000000000000000000000000000600082015250565b600061410a60018361386c565b9150614115826140d4565b600182019050919050565b600061412b82613e05565b915061413682613e51565b9150614142828861390b565b915061414d82613e9d565b915061415882613f35565b915061416382613f81565b915061416f828761390b565b915061417a82613e9d565b915061418582613fcd565b9150614191828661390b565b915061419c82613e9d565b91506141a782614019565b91506141b3828561390b565b91506141be82613e9d565b91506141c982614065565b91506141d5828461388c565b91506141e0826140b1565b91506141eb826140fd565b91508190509695505050505050565b7f646174613a6170706c69636174696f6e2f6a736f6e3b6261736536342c000000600082015250565b6000614230601d8361386c565b915061423b826141fa565b601d82019050919050565b600061425182614223565b915061425d828461390b565b915081905092915050565b7f5769746864726177616c20616d6f756e74206d7573742062652067726561746560008201527f72207468616e207a65726f000000000000000000000000000000000000000000602082015250565b60006142c4602b83612ddc565b91506142cf82614268565b604082019050919050565b600060208201905081810360008301526142f3816142b7565b9050919050565b600060408201905061430f60008301856133e0565b61431c6020830184612cec565b9392505050565b7f455243313135353a206163636f756e747320616e6420696473206c656e67746860008201527f206d69736d617463680000000000000000000000000000000000000000000000602082015250565b600061437f602983612ddc565b915061438a82614323565b604082019050919050565b600060208201905081810360008301526143ae81614372565b9050919050565b7f4e487b7100000000000000000000000000000000000000000000000000000000600052603260045260246000fd5b60006143ef82612c76565b91507fffffffffffffffffffffffffffffffffffffffffffffffffffffffffffffffff82141561442257614421613a7e565b5b600182019050919050565b7f50726f7065727479202300000000000000000000000000000000000000000000600082015250565b6000614463600a8361386c565b915061446e8261442d565b600a82019050919050565b600061448482614456565b9150614490828461390b565b915081905092915050565b7f4f776e61626c653a206e6577206f776e657220697320746865207a65726f206160008201527f6464726573730000000000000000000000000000000000000000000000000000602082015250565b60006144f7602683612ddc565b91506145028261449b565b604082019050919050565b60006020820190508181036000830152614526816144ea565b9050919050565b600061453882612c76565b915061454383612c76565b9250817fffffffffffffffffffffffffffffffffffffffffffffffffffffffffffffffff048311821515161561457c5761457b613a7e565b5b828202905092915050565b7f455243313135353a206d696e7420746f20746865207a65726f2061646472657360008201527f7300000000000000000000000000000000000000000000000000000000000000602082015250565b60006145e3602183612ddc565b91506145ee82614587565b604082019050919050565b60006020820190508181036000830152614612816145d6565b9050919050565b600060408201905061462e6000830185612cec565b61463b6020830184612cec565b9392505050565b7f455243313135353a2069647320616e6420616d6f756e7473206c656e6774682060008201527f6d69736d61746368000000000000000000000000000000000000000000000000602082015250565b600061469e602883612ddc565b91506146a982614642565b604082019050919050565b600060208201905081810360008301526146cd81614691565b9050919050565b7f455243313135353a207472616e7366657220746f20746865207a65726f20616460008201527f6472657373000000000000000000000000000000000000000000000000000000602082015250565b6000614730602583612ddc565b915061473b826146d4565b604082019050919050565b6000602082019050818103600083015261475f81614723565b9050919050565b7f455243313135353a20696e73756666696369656e742062616c616e636520666f60008201527f72207472616e7366657200000000000000000000000000000000000000000000602082015250565b60006147c2602a83612ddc565b91506147cd82614766565b604082019050919050565b600060208201905081810360008301526147f1816147b5565b9050919050565b600060408201905081810360008301526148128185613360565b905081810360208301526148268184613360565b90509392505050565b7f4e487b7100000000000000000000000000000000000000000000000000000000600052601260045260246000fd5b600061486982612c76565b915061487483612c76565b9250826148845761488361482f565b5b828204905092915050565b7f4f776e61626c653a2063616c6c6572206973206e6f7420746865206f776e6572600082015250565b60006148c5602083612ddc565b91506148d08261488f565b602082019050919050565b600060208201905081810360008301526148f4816148b8565b9050919050565b7f455243313135353a2073657474696e6720617070726f76616c2073746174757360008201527f20666f722073656c660000000000000000000000000000000000000000000000602082015250565b6000614957602983612ddc565b9150614962826148fb565b604082019050919050565b600060208201905081810360008301526149868161494a565b9050919050565b600081519050919050565b600082825260208201905092915050565b60006149b48261498d565b6149be8185614998565b93506149ce818560208601612ded565b6149d781612e20565b840191505092915050565b600060a0820190506149f760008301886133e0565b614a0460208301876133e0565b614a116040830186612cec565b614a1e6060830185612cec565b8181036080830152614a3081846149a9565b90509695505050505050565b600081519050614a4b81612d42565b92915050565b600060208284031215614a6757614a66612c0e565b5b6000614a7584828501614a3c565b91505092915050565b60008160e01c9050919050565b600060033d1115614aaa5760046000803e614aa7600051614a7e565b90505b90565b600060443d1015614abd57614b40565b614ac5612c04565b60043d036004823e80513d602482011167ffffffffffffffff82111715614aed575050614b40565b808201805167ffffffffffffffff811115614b0b5750505050614b40565b80602083010160043d038501811115614b28575050505050614b40565b614b3782602001850186612f2d565b82955050505050505b90565b7f455243313135353a207472616e7366657220746f206e6f6e2d4552433131353560008201527f526563656976657220696d706c656d656e746572000000000000000000000000602082015250565b6000614b9f603483612ddc565b9150614baa82614b43565b604082019050919050565b60006020820190508181036000830152614bce81614b92565b9050919050565b7f455243313135353a204552433131353552656365697665722072656a6563746560008201527f6420746f6b656e73000000000000000000000000000000000000000000000000602082015250565b6000614c31602883612ddc565b9150614c3c82614bd5565b604082019050919050565b60006020820190508181036000830152614c6081614c24565b9050919050565b600060a082019050614c7c60008301886133e0565b614c8960208301876133e0565b8181036040830152614c9b8186613360565b90508181036060830152614caf8185613360565b90508181036080830152614cc381846149a9565b9050969550505050505056fe4142434445464748494a4b4c4d4e4f505152535455565758595a6162636465666768696a6b6c6d6e6f707172737475767778797a303132333435363738392b2fa26469706673582212209190b7d7ab600b521b29b507ac15217991376cadee31cf8afd6b8e602d96f56464736f6c634300080c0033",
  "devdoc": {
    "kind": "dev",
    "methods": {
      "balanceOf(address,uint256)": {
        "details": "See {IERC1155-balanceOf}. Requirements: - `account` cannot be the zero address."
      },
      "balanceOfBatch(address[],uint256[])": {
        "details": "See {IERC1155-balanceOfBatch}. Requirements: - `accounts` and `ids` must have the same length."
      },
      "isApprovedForAll(address,address)": {
        "details": "See {IERC1155-isApprovedForAll}."
      },
      "owner()": {
        "details": "Returns the address of the current owner."
      },
      "renounceOwnership()": {
        "details": "Leaves the contract without owner. It will not be possible to call `onlyOwner` functions. Can only be called by the current owner. NOTE: Renouncing ownership will leave the contract without an owner, thereby disabling any functionality that is only available to the owner."
      },
      "safeBatchTransferFrom(address,address,uint256[],uint256[],bytes)": {
        "details": "See {IERC1155-safeBatchTransferFrom}."
      },
      "safeTransferFrom(address,address,uint256,uint256,bytes)": {
        "details": "See {IERC1155-safeTransferFrom}."
      },
      "setApprovalForAll(address,bool)": {
        "details": "See {IERC1155-setApprovalForAll}."
      },
      "supportsInterface(bytes4)": {
        "details": "See {IERC165-supportsInterface}."
      },
      "transferOwnership(address)": {
        "details": "Transfers ownership of the contract to a new account (`newOwner`). Can only be called by the current owner."
      },
      "uri(uint256)": {
        "details": "See {IERC1155MetadataURI-uri}. This implementation returns the concatenation of the `_baseURI` and the token-specific uri if the latter is set This enables the following behaviors: - if `_tokenURIs[tokenId]` is set, then the result is the concatenation   of `_baseURI` and `_tokenURIs[tokenId]` (keep in mind that `_baseURI`   is empty per default); - if `_tokenURIs[tokenId]` is NOT set then we fallback to `super.uri()`   which in most cases will contain `ERC1155._uri`; - if `_tokenURIs[tokenId]` is NOT set, and if the parents do not have a   uri value set, then the result is empty."
      }
    },
    "version": 1
  },
  "userdoc": {
    "kind": "user",
    "methods": {},
    "version": 1
  },
  "storageLayout": {
    "storage": [
      {
        "astId": 138,
        "contract": "contracts/RealEstateV2.sol:RealEstateV2",
        "label": "_balances",
        "offset": 0,
        "slot": "0",
        "type": "t_mapping(t_uint256,t_mapping(t_address,t_uint256))"
      },
      {
        "astId": 144,
        "contract": "contracts/RealEstateV2.sol:RealEstateV2",
        "label": "_operatorApprovals",
        "offset": 0,
        "slot": "1",
        "type": "t_mapping(t_address,t_mapping(t_address,t_bool))"
      },
      {
        "astId": 146,
        "contract": "contracts/RealEstateV2.sol:RealEstateV2",
        "label": "_uri",
        "offset": 0,
        "slot": "2",
        "type": "t_string_storage"
      },
      {
        "astId": 1511,
        "contract": "contracts/RealEstateV2.sol:RealEstateV2",
        "label": "_baseURI",
        "offset": 0,
        "slot": "3",
        "type": "t_string_storage"
      },
      {
        "astId": 1515,
        "contract": "contracts/RealEstateV2.sol:RealEstateV2",
        "label": "_tokenURIs",
        "offset": 0,
        "slot": "4",
        "type": "t_mapping(t_uint256,t_string_storage)"
      },
      {
        "astId": 7,
        "contract": "contracts/RealEstateV2.sol:RealEstateV2",
        "label": "_owner",
        "offset": 0,
        "slot": "5",
        "type": "t_address"
      },
      {
        "astId": 3702,
        "contract": "contracts/RealEstateV2.sol:RealEstateV2",
        "label": "_tokenIds",
        "offset": 0,
        "slot": "6",
        "type": "t_struct(Counter)2006_storage"
      },
      {
        "astId": 3704,
        "contract": "contracts/RealEstateV2.sol:RealEstateV2",
        "label": "name",
        "offset": 0,
        "slot": "7",
        "type": "t_string_storage"
      },
      {
        "astId": 3706,
        "contract": "contracts/RealEstateV2.sol:RealEstateV2",
        "label": "symbol",
        "offset": 0,
        "slot": "8",
        "type": "t_string_storage"
      },
      {
        "astId": 3723,
        "contract": "contracts/RealEstateV2.sol:RealEstateV2",
        "label": "tokenIdToProperty",
        "offset": 0,
        "slot": "9",
        "type": "t_mapping(t_uint256,t_struct(Property)3718_storage)"
      },
      {
        "astId": 3727,
        "contract": "contracts/RealEstateV2.sol:RealEstateV2",
        "label": "checkTokenSupplyStatus",
        "offset": 0,
        "slot": "10",
        "type": "t_mapping(t_uint256,t_bool)"
      },
      {
        "astId": 3731,
        "contract": "contracts/RealEstateV2.sol:RealEstateV2",
        "label": "totalTokenSupplyForAGivenProperty",
        "offset": 0,
        "slot": "11",
        "type": "t_mapping(t_uint256,t_uint256)"
      },
      {
        "astId": 3735,
        "contract": "contracts/RealEstateV2.sol:RealEstateV2",
        "label": "tokenIdToImageLink",
        "offset": 0,
        "slot": "12",
        "type": "t_mapping(t_uint256,t_string_storage)"
      }
    ],
    "types": {
      "t_address": {
        "encoding": "inplace",
        "label": "address",
        "numberOfBytes": "20"
      },
      "t_bool": {
        "encoding": "inplace",
        "label": "bool",
        "numberOfBytes": "1"
      },
      "t_mapping(t_address,t_bool)": {
        "encoding": "mapping",
        "key": "t_address",
        "label": "mapping(address => bool)",
        "numberOfBytes": "32",
        "value": "t_bool"
      },
      "t_mapping(t_address,t_mapping(t_address,t_bool))": {
        "encoding": "mapping",
        "key": "t_address",
        "label": "mapping(address => mapping(address => bool))",
        "numberOfBytes": "32",
        "value": "t_mapping(t_address,t_bool)"
      },
      "t_mapping(t_address,t_uint256)": {
        "encoding": "mapping",
        "key": "t_address",
        "label": "mapping(address => uint256)",
        "numberOfBytes": "32",
        "value": "t_uint256"
      },
      "t_mapping(t_uint256,t_bool)": {
        "encoding": "mapping",
        "key": "t_uint256",
        "label": "mapping(uint256 => bool)",
        "numberOfBytes": "32",
        "value": "t_bool"
      },
      "t_mapping(t_uint256,t_mapping(t_address,t_uint256))": {
        "encoding": "mapping",
        "key": "t_uint256",
        "label": "mapping(uint256 => mapping(address => uint256))",
        "numberOfBytes": "32",
        "value": "t_mapping(t_address,t_uint256)"
      },
      "t_mapping(t_uint256,t_string_storage)": {
        "encoding": "mapping",
        "key": "t_uint256",
        "label": "mapping(uint256 => string)",
        "numberOfBytes": "32",
        "value": "t_string_storage"
      },
      "t_mapping(t_uint256,t_struct(Property)3718_storage)": {
        "encoding": "mapping",
        "key": "t_uint256",
        "label": "mapping(uint256 => struct RealEstateV2.Property)",
        "numberOfBytes": "32",
        "value": "t_struct(Property)3718_storage"
      },
      "t_mapping(t_uint256,t_uint256)": {
        "encoding": "mapping",
        "key": "t_uint256",
        "label": "mapping(uint256 => uint256)",
        "numberOfBytes": "32",
        "value": "t_uint256"
      },
      "t_string_storage": {
        "encoding": "bytes",
        "label": "string",
        "numberOfBytes": "32"
      },
      "t_struct(Counter)2006_storage": {
        "encoding": "inplace",
        "label": "struct Counters.Counter",
        "members": [
          {
            "astId": 2005,
            "contract": "contracts/RealEstateV2.sol:RealEstateV2",
            "label": "_value",
            "offset": 0,
            "slot": "0",
            "type": "t_uint256"
          }
        ],
        "numberOfBytes": "32"
      },
      "t_struct(Property)3718_storage": {
        "encoding": "inplace",
        "label": "struct RealEstateV2.Property",
        "members": [
          {
            "astId": 3711,
            "contract": "contracts/RealEstateV2.sol:RealEstateV2",
            "label": "name",
            "offset": 0,
            "slot": "0",
            "type": "t_string_storage"
          },
          {
            "astId": 3713,
            "contract": "contracts/RealEstateV2.sol:RealEstateV2",
            "label": "totalTokens",
            "offset": 0,
            "slot": "1",
            "type": "t_uint256"
          },
          {
            "astId": 3715,
            "contract": "contracts/RealEstateV2.sol:RealEstateV2",
            "label": "tokensSold",
            "offset": 0,
            "slot": "2",
            "type": "t_uint256"
          },
          {
            "astId": 3717,
            "contract": "contracts/RealEstateV2.sol:RealEstateV2",
            "label": "country",
            "offset": 0,
            "slot": "3",
            "type": "t_string_storage"
          }
        ],
        "numberOfBytes": "128"
      },
      "t_uint256": {
        "encoding": "inplace",
        "label": "uint256",
        "numberOfBytes": "32"
      }
    }
  }
}